{
  "contractName": "Voting",
  "abi": [
    {
      "constant": true,
      "inputs": [
        {
          "name": "",
          "type": "uint256"
        }
      ],
      "name": "proposals",
      "outputs": [
        {
          "name": "name",
          "type": "bytes32"
        },
        {
          "name": "votingStart",
          "type": "uint256"
        },
        {
          "name": "votingTime",
          "type": "uint256"
        },
        {
          "name": "numOptions",
          "type": "uint256"
        },
        {
          "name": "numCastedVotes",
          "type": "uint256"
        },
        {
          "name": "isEnded",
          "type": "bool"
        },
        {
          "name": "winningProposalOption",
          "type": "uint256"
        },
        {
          "name": "winningProposalOptionName",
          "type": "bytes32"
        }
      ],
      "payable": false,
      "stateMutability": "view",
      "type": "function"
    },
    {
      "constant": false,
      "inputs": [
        {
          "name": "_new",
          "type": "address"
        }
      ],
      "name": "setOwner",
      "outputs": [],
      "payable": false,
      "stateMutability": "nonpayable",
      "type": "function"
    },
    {
      "constant": true,
      "inputs": [],
      "name": "chairperson",
      "outputs": [
        {
          "name": "",
          "type": "address"
        }
      ],
      "payable": false,
      "stateMutability": "view",
      "type": "function"
    },
    {
      "constant": true,
      "inputs": [],
      "name": "numProposals",
      "outputs": [
        {
          "name": "",
          "type": "uint256"
        }
      ],
      "payable": false,
      "stateMutability": "view",
      "type": "function"
    },
    {
      "constant": true,
      "inputs": [],
      "name": "numVoters",
      "outputs": [
        {
          "name": "",
          "type": "uint256"
        }
      ],
      "payable": false,
      "stateMutability": "view",
      "type": "function"
    },
    {
      "constant": true,
      "inputs": [],
      "name": "numEndedProposals",
      "outputs": [
        {
          "name": "",
          "type": "uint256"
        }
      ],
      "payable": false,
      "stateMutability": "view",
      "type": "function"
    },
    {
      "constant": true,
      "inputs": [],
      "name": "owner",
      "outputs": [
        {
          "name": "",
          "type": "address"
        }
      ],
      "payable": false,
      "stateMutability": "view",
      "type": "function"
    },
    {
      "constant": true,
      "inputs": [
        {
          "name": "",
          "type": "uint256"
        }
      ],
      "name": "voters",
      "outputs": [
        {
          "name": "addr",
          "type": "address"
        },
        {
          "name": "rightToVote",
          "type": "bool"
        },
        {
          "name": "weight",
          "type": "uint256"
        }
      ],
      "payable": false,
      "stateMutability": "view",
      "type": "function"
    },
    {
      "inputs": [],
      "payable": false,
      "stateMutability": "nonpayable",
      "type": "constructor"
    },
    {
      "anonymous": false,
      "inputs": [
        {
          "indexed": false,
          "name": "voter",
          "type": "address"
        },
        {
          "indexed": false,
          "name": "proposal",
          "type": "uint256"
        },
        {
          "indexed": false,
          "name": "proposalOption",
          "type": "uint256"
        }
      ],
      "name": "Voted",
      "type": "event"
    },
    {
      "anonymous": false,
      "inputs": [
        {
          "indexed": false,
          "name": "proposal",
          "type": "uint256"
        },
        {
          "indexed": false,
          "name": "winningProposalOption",
          "type": "uint256"
        }
      ],
      "name": "ProposalEnded",
      "type": "event"
    },
    {
      "anonymous": false,
      "inputs": [
        {
          "indexed": true,
          "name": "old",
          "type": "address"
        },
        {
          "indexed": true,
          "name": "current",
          "type": "address"
        }
      ],
      "name": "NewOwner",
      "type": "event"
    },
    {
      "constant": false,
      "inputs": [
        {
          "name": "newAddress",
          "type": "address"
        }
      ],
      "name": "changeChairman",
      "outputs": [],
      "payable": false,
      "stateMutability": "nonpayable",
      "type": "function"
    },
    {
      "constant": false,
      "inputs": [
        {
          "name": "proposalName",
          "type": "bytes32"
        },
        {
          "name": "optionNames",
          "type": "bytes32[]"
        },
        {
          "name": "votingTime",
          "type": "uint256"
        }
      ],
      "name": "createProposal",
      "outputs": [],
      "payable": false,
      "stateMutability": "nonpayable",
      "type": "function"
    },
    {
      "constant": false,
      "inputs": [
        {
          "name": "voterAddress",
          "type": "address"
        }
      ],
      "name": "giveRightToVote",
      "outputs": [],
      "payable": false,
      "stateMutability": "nonpayable",
      "type": "function"
    },
    {
      "constant": false,
      "inputs": [
        {
          "name": "voterAddress",
          "type": "address"
        }
      ],
      "name": "revokeRightToVote",
      "outputs": [],
      "payable": false,
      "stateMutability": "nonpayable",
      "type": "function"
    },
    {
      "constant": false,
      "inputs": [
        {
          "name": "proposal",
          "type": "uint256"
        },
        {
          "name": "proposalOption",
          "type": "uint256"
        }
      ],
      "name": "vote",
      "outputs": [],
      "payable": false,
      "stateMutability": "nonpayable",
      "type": "function"
    },
    {
      "constant": true,
      "inputs": [
        {
          "name": "proposal",
          "type": "uint256"
        },
        {
          "name": "user",
          "type": "address"
        }
      ],
      "name": "hasUserVoted",
      "outputs": [
        {
          "name": "result",
          "type": "bool"
        }
      ],
      "payable": false,
      "stateMutability": "view",
      "type": "function"
    },
    {
      "constant": true,
      "inputs": [
        {
          "name": "user",
          "type": "address"
        }
      ],
      "name": "getVoterDetail",
      "outputs": [
        {
          "name": "result",
          "type": "bool"
        },
        {
          "name": "weight",
          "type": "uint256"
        }
      ],
      "payable": false,
      "stateMutability": "view",
      "type": "function"
    },
    {
      "constant": false,
      "inputs": [
        {
          "name": "proposal",
          "type": "uint256"
        }
      ],
      "name": "finalizeProposal",
      "outputs": [
        {
          "name": "proposalName",
          "type": "bytes32"
        },
        {
          "name": "winningProposalOption",
          "type": "uint256"
        },
        {
          "name": "winningProposalOptionName",
          "type": "bytes32"
        }
      ],
      "payable": false,
      "stateMutability": "nonpayable",
      "type": "function"
    },
    {
      "constant": true,
      "inputs": [
        {
          "name": "proposal",
          "type": "uint256"
        }
      ],
      "name": "getProposalResult",
      "outputs": [
        {
          "name": "proposalName",
          "type": "bytes32"
        },
        {
          "name": "winningProposalOption",
          "type": "uint256"
        },
        {
          "name": "winningProposalOptionName",
          "type": "bytes32"
        }
      ],
      "payable": false,
      "stateMutability": "view",
      "type": "function"
    },
    {
      "constant": true,
      "inputs": [
        {
          "name": "proposal",
          "type": "uint256"
        },
        {
          "name": "user",
          "type": "address"
        }
      ],
      "name": "getProposalDetailsForVoter",
      "outputs": [
        {
          "name": "proposalName",
          "type": "bytes32"
        },
        {
          "name": "numOptions",
          "type": "uint256"
        },
        {
          "name": "optionNames",
          "type": "bytes32[]"
        }
      ],
      "payable": false,
      "stateMutability": "view",
      "type": "function"
    },
    {
      "constant": true,
      "inputs": [
        {
          "name": "proposal",
          "type": "uint256"
        },
        {
          "name": "proposalOptionNum",
          "type": "uint256"
        }
      ],
      "name": "getProposalOptionName",
      "outputs": [
        {
          "name": "proposalOptionName",
          "type": "bytes32"
        }
      ],
      "payable": false,
      "stateMutability": "view",
      "type": "function"
    }
  ],
  "bytecode": "0x6080604052336000806101000a81548173ffffffffffffffffffffffffffffffffffffffff021916908373ffffffffffffffffffffffffffffffffffffffff16021790555034801561005057600080fd5b5060008060009054906101000a900473ffffffffffffffffffffffffffffffffffffffff1673ffffffffffffffffffffffffffffffffffffffff163373ffffffffffffffffffffffffffffffffffffffff161415156100ae57600080fd5b33600160006101000a81548173ffffffffffffffffffffffffffffffffffffffff021916908373ffffffffffffffffffffffffffffffffffffffff16021790555060016005819055506002600060055481526020019081526020016000209050600160009054906101000a900473ffffffffffffffffffffffffffffffffffffffff168160000160006101000a81548173ffffffffffffffffffffffffffffffffffffffff021916908373ffffffffffffffffffffffffffffffffffffffff16021790555060018160000160146101000a81548160ff021916908315150217905550600181600101819055506000600481905550600060068190555050611986806101ba6000396000f300608060405260043610610107576000357c0100000000000000000000000000000000000000000000000000000000900463ffffffff168063013cf08b1461010c57806313af4035146101925780632e4176cf146101d5578063400e39491461022c5780634cbe32b814610257578063518e76fb146102825780635652077c146102ad57806357c204b41461030c578063765586cf1461034f5780638da5cb5b146104075780639e7b8d611461045e578063b384abef146104a1578063be83808b146104d8578063da58c7d914610556578063dc296ae1146105d5578063e45f1c241461063a578063e81018691461069c578063ef6ed83c146106df578063f91f88f714610732575b600080fd5b34801561011857600080fd5b5061013760048036038101908080359060200190929190505050610791565b6040518089600019166000191681526020018881526020018781526020018681526020018581526020018415151515815260200183815260200182600019166000191681526020019850505050505050505060405180910390f35b34801561019e57600080fd5b506101d3600480360381019080803573ffffffffffffffffffffffffffffffffffffffff1690602001909291905050506107e6565b005b3480156101e157600080fd5b506101ea6108ff565b604051808273ffffffffffffffffffffffffffffffffffffffff1673ffffffffffffffffffffffffffffffffffffffff16815260200191505060405180910390f35b34801561023857600080fd5b50610241610925565b6040518082815260200191505060405180910390f35b34801561026357600080fd5b5061026c61092b565b6040518082815260200191505060405180910390f35b34801561028e57600080fd5b50610297610931565b6040518082815260200191505060405180910390f35b3480156102b957600080fd5b506102d860048036038101908080359060200190929190505050610937565b6040518084600019166000191681526020018381526020018260001916600019168152602001935050505060405180910390f35b34801561031857600080fd5b5061034d600480360381019080803573ffffffffffffffffffffffffffffffffffffffff169060200190929190505050610c1f565b005b34801561035b57600080fd5b5061039a60048036038101908080359060200190929190803573ffffffffffffffffffffffffffffffffffffffff169060200190929190505050610d54565b60405180846000191660001916815260200183815260200180602001828103825283818151815260200191508051906020019060200280838360005b838110156103f15780820151818401526020810190506103d6565b5050505090500194505050505060405180910390f35b34801561041357600080fd5b5061041c610f52565b604051808273ffffffffffffffffffffffffffffffffffffffff1673ffffffffffffffffffffffffffffffffffffffff16815260200191505060405180910390f35b34801561046a57600080fd5b5061049f600480360381019080803573ffffffffffffffffffffffffffffffffffffffff169060200190929190505050610f77565b005b3480156104ad57600080fd5b506104d660048036038101908080359060200190929190803590602001909291905050506110f4565b005b3480156104e457600080fd5b5061055460048036038101908080356000191690602001909291908035906020019082018035906020019080806020026020016040519081016040528093929190818152602001838360200280828437820191505050505050919291929080359060200190929190505050611375565b005b34801561056257600080fd5b50610581600480360381019080803590602001909291905050506114db565b604051808473ffffffffffffffffffffffffffffffffffffffff1673ffffffffffffffffffffffffffffffffffffffff16815260200183151515158152602001828152602001935050505060405180910390f35b3480156105e157600080fd5b5061062060048036038101908080359060200190929190803573ffffffffffffffffffffffffffffffffffffffff169060200190929190505050611532565b604051808215151515815260200191505060405180910390f35b34801561064657600080fd5b5061067b600480360381019080803573ffffffffffffffffffffffffffffffffffffffff169060200190929190505050611604565b60405180831515151581526020018281526020019250505060405180910390f35b3480156106a857600080fd5b506106dd600480360381019080803573ffffffffffffffffffffffffffffffffffffffff1690602001909291905050506116c9565b005b3480156106eb57600080fd5b506107146004803603810190808035906020019092919080359060200190929190505050611768565b60405180826000191660001916815260200191505060405180910390f35b34801561073e57600080fd5b5061075d6004803603810190808035906020019092919050505061179d565b6040518084600019166000191681526020018381526020018260001916600019168152602001935050505060405180910390f35b60036020528060005260406000206000915090508060000154908060010154908060020154908060030154908060040154908060050160009054906101000a900460ff16908060070154908060080154905088565b6000809054906101000a900473ffffffffffffffffffffffffffffffffffffffff1673ffffffffffffffffffffffffffffffffffffffff163373ffffffffffffffffffffffffffffffffffffffff1614151561084157600080fd5b8073ffffffffffffffffffffffffffffffffffffffff166000809054906101000a900473ffffffffffffffffffffffffffffffffffffffff1673ffffffffffffffffffffffffffffffffffffffff167f70aea8d848e8a90fb7661b227dc522eb6395c3dac71b63cb59edd5c9899b236460405160405180910390a3806000806101000a81548173ffffffffffffffffffffffffffffffffffffffff021916908373ffffffffffffffffffffffffffffffffffffffff16021790555050565b600160009054906101000a900473ffffffffffffffffffffffffffffffffffffffff1681565b60045481565b60055481565b60065481565b6000806000806000806000600160009054906101000a900473ffffffffffffffffffffffffffffffffffffffff1673ffffffffffffffffffffffffffffffffffffffff163373ffffffffffffffffffffffffffffffffffffffff1614151561099e57600080fd5b6003600089815260200190815260200160002060020154600360008a81526020019081526020016000206001015401421115156109da57600080fd5b6000935060036000898152602001908152602001600020600301549250600091505b82821015610a745783600360008a81526020019081526020016000206006016000848152602001908152602001600020600101541115610a67576003600089815260200190815260200160002060060160008381526020019081526020016000206001015493508195505b81806001019250506109fc565b85600360008a8152602001908152602001600020600701819055506003600089815260200190815260200160002060060160008781526020019081526020016000206000015494506003600089815260200190815260200160002060000154965084600360008a815260200190815260200160002060080181600019169055506001600360008a815260200190815260200160002060050160006101000a81548160ff0219169083151502179055506001600654016006819055507f8a00b53a7387803f9f866a4e3c7c313a0ef8b7c7e3d8dfeeb091df38cb8688238887604051808381526020018281526020019250505060405180910390a1600191505b60055482111515610c1457600260008381526020019081526020016000209050600115158160020160008a815260200190815260200160002060000160009054906101000a900460ff1615151415610be857600481600101541015610be357600181600101540181600101819055505b610c07565b600181600101541115610c0657600181600101540381600101819055505b5b8180600101925050610b73565b505050509193909250565b6000600160009054906101000a900473ffffffffffffffffffffffffffffffffffffffff1673ffffffffffffffffffffffffffffffffffffffff163373ffffffffffffffffffffffffffffffffffffffff16141515610c7d57600080fd5b600190505b60055481111515610d50578173ffffffffffffffffffffffffffffffffffffffff166002600083815260200190815260200160002060000160009054906101000a900473ffffffffffffffffffffffffffffffffffffffff1673ffffffffffffffffffffffffffffffffffffffff161415610d435760006002600083815260200190815260200160002060000160146101000a81548160ff021916908315150217905550600060026000838152602001908152602001600020600101819055505b8080600101915050610c82565b5050565b6000806060600080600360008881526020019081526020016000206002015460036000898152602001908152602001600020600101540142111515610f4957600191505b60055482111515610e30578573ffffffffffffffffffffffffffffffffffffffff166002600084815260200190815260200160002060000160009054906101000a900473ffffffffffffffffffffffffffffffffffffffff1673ffffffffffffffffffffffffffffffffffffffff161415610e23576002600083815260200190815260200160002090505b8180600101925050610d98565b6000151581600201600089815260200190815260200160002060000160009054906101000a900460ff1615151415610f4857600360008881526020019081526020016000206000015494506003600088815260200190815260200160002060030154935083604051908082528060200260200182016040528015610ec35781602001602082028038833980820191505090505b509250600091505b6003600088815260200190815260200160002060030154821015610f4757600360008881526020019081526020016000206006016000838152602001908152602001600020600001548383815181101515610f2257fe5b9060200190602002019060001916908160001916815250508180600101925050610ecb565b5b5b50509250925092565b6000809054906101000a900473ffffffffffffffffffffffffffffffffffffffff1681565b600080600160009054906101000a900473ffffffffffffffffffffffffffffffffffffffff1673ffffffffffffffffffffffffffffffffffffffff163373ffffffffffffffffffffffffffffffffffffffff16141515610fd657600080fd5b600191505b60055482111515611062578273ffffffffffffffffffffffffffffffffffffffff166002600084815260200190815260200160002060000160009054906101000a900473ffffffffffffffffffffffffffffffffffffffff1673ffffffffffffffffffffffffffffffffffffffff16141561105557600080fd5b8180600101925050610fdb565b6001600554016005819055506002600060055481526020019081526020016000209050828160000160006101000a81548173ffffffffffffffffffffffffffffffffffffffff021916908373ffffffffffffffffffffffffffffffffffffffff16021790555060018160000160146101000a81548160ff02191690831515021790555060018160010181905550505050565b600080600360008581526020019081526020016000206002015460036000868152602001908152602001600020600101540142111561113257600080fd5b600191505b600554821115156111cf573373ffffffffffffffffffffffffffffffffffffffff166002600084815260200190815260200160002060000160009054906101000a900473ffffffffffffffffffffffffffffffffffffffff1673ffffffffffffffffffffffffffffffffffffffff1614156111c2576002600083815260200190815260200160002090505b8180600101925050611137565b6001151581600201600086815260200190815260200160002060000160009054906101000a900460ff161515141561120657600080fd5b600015158160000160149054906101000a900460ff161515141561122957600080fd5b600181600201600086815260200190815260200160002060000160006101000a81548160ff0219169083151502179055508281600201600086815260200190815260200160002060010181905550806001015460036000868152602001908152602001600020600601600085815260200190815260200160002060010160008282540192505081905550600160036000868152602001908152602001600020600401600082825401925050819055507fea66f58e474bc09f580000e81f31b334d171db387d0c6098ba47bd897741679b8160000160009054906101000a900473ffffffffffffffffffffffffffffffffffffffff168585604051808473ffffffffffffffffffffffffffffffffffffffff1673ffffffffffffffffffffffffffffffffffffffff168152602001838152602001828152602001935050505060405180910390a150505050565b600080600160009054906101000a900473ffffffffffffffffffffffffffffffffffffffff1673ffffffffffffffffffffffffffffffffffffffff163373ffffffffffffffffffffffffffffffffffffffff161415156113d457600080fd5b6001600454016004819055506003600060045481526020019081526020016000209150848260000181600019169055506000826003018190555060008260050160006101000a81548160ff0219169083151502179055504282600101819055508282600201819055506201869f826007018190555060008260040181905550600090505b83518110156114d457838181518110151561146f57fe5b906020019060200201518260060160008381526020019081526020016000206000018160001916905550600082600601600083815260200190815260200160002060010181905550600182600301540182600301819055508080600101915050611458565b5050505050565b60026020528060005260406000206000915090508060000160009054906101000a900473ffffffffffffffffffffffffffffffffffffffff16908060000160149054906101000a900460ff16908060010154905083565b6000806000600191505b600554821115156115d4578373ffffffffffffffffffffffffffffffffffffffff166002600084815260200190815260200160002060000160009054906101000a900473ffffffffffffffffffffffffffffffffffffffff1673ffffffffffffffffffffffffffffffffffffffff1614156115c7576002600083815260200190815260200160002090505b818060010192505061153c565b80600201600086815260200190815260200160002060000160009054906101000a900460ff169250505092915050565b600080600080600191505b600554821115156116a7578473ffffffffffffffffffffffffffffffffffffffff166002600084815260200190815260200160002060000160009054906101000a900473ffffffffffffffffffffffffffffffffffffffff1673ffffffffffffffffffffffffffffffffffffffff16141561169a576002600083815260200190815260200160002090505b818060010192505061160f565b8060000160149054906101000a900460ff169350806001015492505050915091565b6000809054906101000a900473ffffffffffffffffffffffffffffffffffffffff1673ffffffffffffffffffffffffffffffffffffffff163373ffffffffffffffffffffffffffffffffffffffff1614151561172457600080fd5b80600160006101000a81548173ffffffffffffffffffffffffffffffffffffffff021916908373ffffffffffffffffffffffffffffffffffffffff16021790555050565b600060036000848152602001908152602001600020600601600083815260200190815260200160002060000154905092915050565b6000806000806000806003600088815260200190815260200160002060050160009054906101000a900460ff1615611833576003600088815260200190815260200160002060000154955060036000888152602001908152602001600020600701549450600360008881526020019081526020016000206006016000868152602001908152602001600020600001549350611950565b60036000888152602001908152602001600020600201546003600089815260200190815260200160002060010154014211151561186f57600080fd5b6000925060036000888152602001908152602001600020600301549150600090505b8181101561190957826003600089815260200190815260200160002060060160008381526020019081526020016000206001015411156118fc576003600088815260200190815260200160002060060160008281526020019081526020016000206001015492508094505b8080600101915050611891565b600360008881526020019081526020016000206000015495506003600088815260200190815260200160002060060160008681526020019081526020016000206000015493505b50505091939092505600a165627a7a72305820a831d7766246bef2c029a2ffe537ee9004f31fe4f4d610128e9a0ccad0fd8aff0029",
  "source": "pragma solidity ^ 0.4.18;\n\nimport \"./interfaces/Owned.sol\";\nimport \"./RelayedOwnedSet.sol\";\n\ncontract Voting is Owned {\n    // Declare a complex type to reresent a single voter.\n\n    struct Vote {        \n        bool voted;  // if true, that person already voted\n        uint vote;  \n    }\n\n    struct Voter {        \n        //bool voted;  // if true, that person already voted\n        //uint vote;   // index of the voted proposal\n        address addr;\n        bool rightToVote; // if true, that person has right to vote\n        uint weight;\n        mapping (uint => Vote) votes;\n    }\n\n    // This is a type for a single proposal.\n    struct ProposalOption\n    {\n        bytes32 name;   // short name for option\n        uint voteCount; // number of accumulated votes\n    }\n\n    // This is a type for a single proposal.\n    struct Proposal\n    {\n        bytes32 name;   // short name for proposal\n        uint votingStart;\n        uint votingTime;\n        uint numOptions;\n        uint numCastedVotes;\n        bool isEnded;\n        mapping (uint => ProposalOption) proposalOptions;\n        uint winningProposalOption;\n        bytes32 winningProposalOptionName;\n    }\n\n    \n    address public chairperson;    \n    mapping(uint => Voter) public voters;\n\n    mapping (uint => Proposal) public proposals;\n    uint public numProposals;\n    uint public numVoters;\n    uint public numEndedProposals;\n    event Voted (address voter, uint proposal, uint proposalOption);\n    event ProposalEnded (uint proposal, uint winningProposalOption);\n    //uint public numProposalOptions;\n\n\n    function Voting() public onlyOwner {\n        chairperson = msg.sender;\n        numVoters=1;\n        Voter storage v = voters[numVoters];\n        v.addr=chairperson;\n        v.rightToVote = true;\n        v.weight = 1;\n        \n        //voters[numVoters].addr=chairperson;\n        //voters[numVoters].rightToVote = true;\n        //voters[numVoters].weight = 1;\n        \n\n        numProposals=0;\n        numEndedProposals=0;\n    }\n\n    function changeChairman(address newAddress) public onlyOwner {\n        chairperson = newAddress;\n    }\n\n    function createProposal(bytes32 proposalName, bytes32[] optionNames, uint votingTime) public {  \n        if (msg.sender != chairperson) {\n            // `revert()` terminates and reverts all changes to the state\n            revert();\n        }     \n        \n        numProposals=numProposals+1;\n        Proposal storage p = proposals[numProposals]; \n        p.name = proposalName;\n        p.numOptions=0;\n        p.isEnded=false;\n        p.votingStart = now;\n        p.votingTime = votingTime;\n        p.winningProposalOption=99999;\n        p.numCastedVotes=0;\n\n        // For each of the provided proposal names,\n        // create a new proposal object and add it\n        // to the end of the array.\n        //numProposalOptions=numProposalOptions+1;\n        for (uint i = 0; i < optionNames.length; i++) {\n            //ProposalOption po; \n            //po.name = optionNames[i];\n            //po.voteCount = 0;\n            //p.proposalOptions[p.numOptions]=po;\n            p.proposalOptions[i].name=optionNames[i];\n            p.proposalOptions[i].voteCount=0;\n            p.numOptions=p.numOptions+1;\n        }\n    }\n\n\n    function giveRightToVote(address voterAddress) public {\n        if (msg.sender != chairperson) {\n            // `revert()` terminates and reverts all changes to the state\n            revert();\n        }\n\n        for (uint i=1; i<=numVoters;i++){\n            if (voters[i].addr==voterAddress){                \n                revert(); //voter already exists\n            }\n        }\n\n        numVoters=numVoters+1;        \n        Voter storage v = voters[numVoters];\n        v.addr=voterAddress;\n        v.rightToVote = true;\n        v.weight = 1;\n    }\n\n    function revokeRightToVote(address voterAddress) public {\n        if (msg.sender != chairperson) {\n            // `revert()` terminates and reverts all changes to the state\n            revert();\n        }\n        //voters[voter].rightToVote = false;\n        //voters[voter].weight = 0;\n        for (uint i=1; i<=numVoters;i++){\n            if (voters[i].addr==voterAddress){\n                voters[i].rightToVote = false;\n                voters[i].weight = 0;\n            }\n        }\n    }\n\n    function vote(uint proposal, uint proposalOption) public {\n        if (now > proposals[proposal].votingStart + proposals[proposal].votingTime) {\n            // Revert the call if the voting period is over\n            revert();\n        }\n\n        //Voter sender = voters[msg.sender];\n\n        for (uint i=1; i<=numVoters;i++){\n            if (voters[i].addr==msg.sender){\n                Voter storage sender = voters[i];\n            }\n        }\n\n        if (sender.votes[proposal].voted==true){\n            revert();\n        }\n\n        if (sender.rightToVote==false){\n            revert();\n        }\n\n        sender.votes[proposal].voted = true;\n        sender.votes[proposal].vote = proposalOption;\n        proposals[proposal].proposalOptions[proposalOption].voteCount += sender.weight;\n        proposals[proposal].numCastedVotes +=1;\n        Voted (sender.addr, proposal, proposalOption);\n        \n    }\n\n    function hasUserVoted(uint proposal, address user) public view \n            returns (bool result)\n    {        \n        for (uint i=1; i<=numVoters;i++){\n            if (voters[i].addr==user){\n                Voter storage sender = voters[i];\n            }\n        }\n        result=sender.votes[proposal].voted;            \n    }\n\n    function getVoterDetail(address user) public view \n            returns (bool result, uint weight)\n    {        \n        for (uint i=1; i<=numVoters;i++){\n            if (voters[i].addr==user){\n                Voter storage sender = voters[i];\n            }\n        }\n        result=sender.rightToVote;            \n        weight=sender.weight;            \n    }\n\n    function finalizeProposal(uint proposal) public\n            returns (bytes32 proposalName, uint winningProposalOption, bytes32 winningProposalOptionName)\n        {\n        if (msg.sender != chairperson) {            \n            revert();\n        }\n\n        if (now <= proposals[proposal].votingStart + proposals[proposal].votingTime){\n            revert(); // voting did not yet end\n        }\n\n        \n        uint winningVoteCount = 0;\n        uint numProposalOptions=proposals[proposal].numOptions;\n        \n        for (uint i = 0; i < numProposalOptions; i++) {\n            if (proposals[proposal].proposalOptions[i].voteCount > winningVoteCount) {\n                winningVoteCount = proposals[proposal].proposalOptions[i].voteCount;\n                winningProposalOption = i;\n                //proposalName = proposals[proposal].name;\n                //winningProposalOptionName=proposals[proposal].proposalOptions[i].name;\n            }\n        }\n\n        proposals[proposal].winningProposalOption=winningProposalOption;\n        winningProposalOptionName=proposals[proposal].proposalOptions[winningProposalOption].name;\n        proposalName = proposals[proposal].name;\n        proposals[proposal].winningProposalOptionName=winningProposalOptionName;\n        proposals[proposal].isEnded=true;\n        numEndedProposals=numEndedProposals+1;\n        ProposalEnded(proposal, winningProposalOption);\n\n        for (i=1; i<=numVoters;i++){\n            Voter storage voter = voters[i];\n            \n            if(voter.votes[proposal].voted == true){\n                //Increase weight by 1 after successful vote\n                if (voter.weight<4){\n                    voter.weight = voter.weight+1;\n                }\n            }else{\n                //Decrease weight by 1 after missed vote\n                if (voter.weight>1){\n                    voter.weight = voter.weight-1;\n                }\n            }\n        }\n    }\n\n    function getProposalResult(uint proposal) public view\n            returns (bytes32 proposalName, uint winningProposalOption, bytes32 winningProposalOptionName)\n    {\n        if(proposals[proposal].isEnded){\n            proposalName = proposals[proposal].name;\n            winningProposalOption=proposals[proposal].winningProposalOption;\n            winningProposalOptionName=proposals[proposal].proposalOptions[winningProposalOption].name;\n        }\n        else{\n            if (now <= proposals[proposal].votingStart + proposals[proposal].votingTime){\n                revert(); // voting did not yet end\n            }\n\n            uint winningVoteCount = 0;\n            uint numProposalOptions=proposals[proposal].numOptions;\n            \n            for (uint i = 0; i < numProposalOptions; i++) {\n                if (proposals[proposal].proposalOptions[i].voteCount > winningVoteCount) {\n                    winningVoteCount = proposals[proposal].proposalOptions[i].voteCount;\n                    winningProposalOption = i;\n                    //winningProposalOptionName=proposals[proposal].proposalOptions[i].name;\n                }\n            }\n            proposalName = proposals[proposal].name;\n            winningProposalOptionName=proposals[proposal].proposalOptions[winningProposalOption].name;\n        }\n    }\n    \n\n    function getProposalDetailsForVoter(uint proposal, address user) public view\n            returns (bytes32 proposalName, uint numOptions, bytes32[] optionNames )\n    {       \n        if (now <= proposals[proposal].votingStart + proposals[proposal].votingTime){// voting did not yet end            \n            for (uint i=1; i<=numVoters;i++){\n                if (voters[i].addr==user){\n                    Voter storage sender = voters[i];\n                    }\n            }\n            //result=sender.votes[proposal].voted;\n            if(sender.votes[proposal].voted==false){ //user hasn't voted for this proposal\n                proposalName = proposals[proposal].name;     \n                numOptions = proposals[proposal].numOptions;\n                optionNames=new bytes32[](numOptions);\n                for (i = 0; i < proposals[proposal].numOptions; i++) {\n                    optionNames[i]=proposals[proposal].proposalOptions[i].name;\n                }\n            }\n        }\n    }\n\n    function getProposalOptionName(uint proposal, uint proposalOptionNum) public view\n            returns (bytes32 proposalOptionName)\n    {               \n        proposalOptionName = proposals[proposal].proposalOptions[proposalOptionNum].name;        \n    }\n\n\n}\n",
  "sourcePath": "/home/james/Bloxberg/bloxbergVotingContracts/contracts/Voting.sol",
  "compiler": {
    "name": "solc",
    "version": "0.4.23+commit.124ca40d.Emscripten.clang"
  },
  "schemaVersion": "2.0.0",
  "updatedAt": "2019-03-19T08:53:24.141Z"
}